:020000040800F2
:100000001804002095360008BD350008BF350008EB
:10001000C1350008C3350008C535000800000000E0
:10002000000000000000000000000000C30D0008F8
:10003000C7350008000000007D0D0008C935000824
:10004000E1360008E5360008E9360008ED3600081C
:10005000F1360008F5360008F9360008FD360008CC
:100060000137000805370008093700080D37000878
:100070001137000815370008193700081D37000828
:100080002137000825370008293700082D370008D8
:100090003137000835370008393700083D37000888
:1000A0004137000845370008493700084D37000838
:1000B000D135000851370008553700085937000876
:1000C0005D370008613700086537000869370008A8
:1000D0006D37000871370008753700087937000858
:1000E0007D37000881370008853700082DE9F04F7B
:1000F00085B004000D0016001F00DDF83880DDF823
:100100003C90B6B2B00000F0D5FB8346BBF1000FC7
:100110000DD0542000F0CEFB8246BAF1000F02D081
:10012000CAF830B005E0584600F051FC01E000206C
:100130008246BAF1000F14D000200390CDF808A039
:10014000CDF80490CDF800803B00B6B23200290013
:10015000200000F00DF8504600F06EF801200490E9
:1001600002E05FF0FF300490049805B0BDE8F08F26
:100170002DE9F14F0C0015001E000A9FDDF82C80C0
:10018000DDF83090D9F8300000EB8500001F824682
:100190005FEADA0A5FEACA0A1AF00700002807D005
:1001A000502080F31188BFF34F8FBFF36F8FFEE7AE
:1001B00000208346BBF1100F0CD214F80B0009EBA2
:1001C0000B0181F8340014F80B00002802D01BF159
:1001D000010BEFE7002089F84300072F01D3062029
:1001E0000700C9F82C70C9F844700020C9F848000D
:1001F00019F1040000F0AFFC19F1180000F0ABFC9D
:10020000C9F81090D7F10700C9F81800C9F8249070
:100210000020C9F84C00002089F8500032000099F5
:10022000504600F0D9FCC9F80000B8F1000F01D029
:10023000C8F80090BDE8F18F10B5040000F035FD5E
:10024000DFF80C040068401CDFF804140860DFF8D5
:100250000404006800280AD1DFF8F8030460DFF81E
:10026000F0030068012811D100F012FA0EE0DFF867
:10027000E8030068002809D1E06ADFF8D8130968AC
:10028000C96A884202D3DFF8CC030460DFF8CC03EC
:100290000068401CDFF8C4130860DFF8C40300687E
:1002A0000121E26A91400843DFF8B4130860211D80
:1002B000DFF8B003E26A14235A43104400F04EFC06
:1002C00000F010FDDFF89003006800280FD0DFF881
:1002D00084030068C06AE16A884208D25FF08050F7
:1002E000DFF8E0140860BFF34F8FBFF36F8F10BDCE
:1002F00038B504000025002C15D0DFF8F0030068A5
:10030000002807D0502080F31188BFF34F8FBFF330
:100310006F8FFEE700F047F80021200000F066FA3A
:1003200000F049F80500002D08D15FF08050DFF89B
:1003300094140860BFF34F8FBFF36F8F31BD1CB5AE
:10034000DFF88C0401900020009000238022DFF869
:1003500084140FF21530FFF7C9FE0400012C16D1EA
:10036000502080F31188BFF34F8FBFF36F8F5FF082
:10037000FF30DFF8641408600120DFF8DC12086049
:100380000020DFF8D413086000F04BFC0AE014F101
:10039000010F07D1502080F31188BFF34F8FBFF3B7
:1003A0006F8FFEE713BDDFF844030068401CDFF8E1
:1003B0003C130860704770B500240025DFF82C035B
:1003C0000068002807D1502080F31188BFF34F8FB9
:1003D000BFF36F8FFEE700F068FCDFF810030068E2
:1003E000401EDFF808130860DFF8000300680028EB
:1003F0005CD1DFF85C020068002857D0DFF8CC033E
:10040000006800282AD0DFF8C403C068C068040070
:1004100014F1180000F0CBFB201D00F0C8FBDFF842
:10042000400200680121E26A91400843DFF830127F
:100430000860211DDFF82C02E26A14235A4310449D
:1004400000F08CFBE06ADFF80C120968C96A884288
:10045000D4D30120DFF818140860CFE7002C01D0B6
:1004600000F085F9DFF874030668002E0ED000F066
:1004700021F8002803D00120DFF8F4130860761E6D
:10048000002EF4D10020DFF854130860DFF8E003F9
:10049000006800280AD0012005005FF08050DFF8D6
:1004A00024130860BFF34F8FBFF36F8F00F01AFC67
:1004B000280070BD2DE9F0410026DFF83002006809
:1004C00000287BD1DFF890020068471CDFF8880223
:1004D0000760002F24D1DFF80803006800680028B7
:1004E00007D0502080F31188BFF34F8FBFF36F8F79
:1004F000FEE7DFF8EC0200688046DFF8E8020068FB
:10050000DFF8DC120860DFF8DC02C0F80080DFF8FA
:10051000D8020068401CDFF8D012086000F027F90C
:10052000DFF8B402006887423CD3DFF8B402006809
:100530000068002805D15FF0FF30DFF89C120860EA
:1005400030E0DFF89C020068C068C06804006068A2
:100550000500AF4203D2DFF88002056022E0201DD3
:1005600000F025FBA06A002803D014F1180000F069
:100570001EFB3B4800680121E26A9140084338496C
:100580000860211D3748E26A14235A43104400F0E2
:10059000E5FAE06A2F490968C96A8842C5D3012093
:1005A0000600C2E72F482B490968C96A1422514343
:1005B0004058022809D30120060006E0DFF81C029B
:1005C0000068401CDFF814120860DFF8A40200681D
:1005D000002801D0012006003000BDE8F08143482A
:1005E0000068002804D00120DFF8841208602EE0A3
:1005F0000020DFF87C12086019490968B1FA81F11E
:10060000D1F11F0108001749142202FB00F289589A
:10061000002907D1502181F31188BFF34F8FBFF319
:100620006F8FFEE70F4A142303FB00F31A441100F7
:100630004A6852684A604A6811F108039A4202D136
:100640004A6852684A604968C968024A116070473E
:10065000EC120020DC120020F81200200813002009
:10066000F41200201810002010B5040000F040F82B
:10067000DFF80C0200680228F8D35FF08050DFF842
:1006800004120860BFF34F8FBFF36F8FEEE70000D7
:1006900010B500200400072C09D2DFF8E401142172
:1006A00001FB04F1084400F047FA641CF3E7DFF8AB
:1006B000D80100F041FADFF8D40100F03DFADFF88C
:1006C0000C0100F039FADFF8C80100F035FA3E48B5
:1006D00000F032FADFF8B001DFF804110860DFF84B
:1006E000AC01DFF8B011086010BD00001413002049
:1006F00038B5DFF8A401006800282BD0FFF753FEBF
:10070000DFF88C010068002801D1012400E00024FA
:10071000FFF751FE002CECD100F0C7FADFF87001B2
:10072000C068C0680500281D00F041FADFF84801E4
:100730000068401EDFF840110860DFF85C010068C7
:10074000401EDFF85411086000F0CCFA280000F0D9
:1007500005F8CEE731BD0000F012002010B504000E
:10076000206B00F034F9200000F031F910BDDFF803
:10077000701009680968002905D15FF0FF31DFF8C2
:100780005820116009E0DFF858100968C968C96885
:1007900008004168DFF8402011607047DFF8FC1066
:1007A0000968002902D10121080009E0DFF8F010F2
:1007B0000968002902D10221080001E00021080097
:1007C0007047000004ED00E0881200206012002055
:1007D00010130020D43600080C130020FC12002057
:1007E000E0120020E412002004130020F8B50400F9
:1007F0000D002048076821480068001D00F0D7F967
:1008000000280BD11D480068264909680122C06AEA
:1008100012FA00F031EA00002249086014F1010FD9
:1008200008D1002D06D015480068011D1E4800F0B3
:1008300095F91BE0E0190600104800684660BE42CA
:1008400007D20E480068011D1248006800F092F9B6
:100850000CE00A480068011D1448006800F08AF99D
:1008600013480068864201D211480660F1BD0000BD
:1008700000130020F0120020EC120020DC120020F7
:100880001810002004ED00E0381200204C12002067
:1008900074120020E4120020E8120020F812002058
:1008A00014130020F412002088120020E01200200F
:1008B0000C1300202DE9F04104005FF00008FFF761
:1008C00072FD96480068002801D100F0BDF89448F8
:1008D000006804426AD1002C15D0924800680419BF
:1008E00014F0070F0FD014F1080014F00701441A98
:1008F00014F0070F07D0502080F31188BFF34F8FFB
:10090000BFF36F8FFEE7002C50D087480068A042ED
:100910004CD3864806008548006805006868A042F8
:1009200005D22868002802D02E002D68F6E77B4803
:10093000006885423AD030687A49096808448046A0
:10094000286830607748006840006968091B884261
:1009500015D205EB0400070017F00700002807D0A8
:10096000502080F31188BFF34F8FBFF36F8FFEE7E6
:100970006868001B78606C60380000F09CF86A487A
:1009800000686968401A68490860674800686849F3
:100990000968884203D2644800686549086068684D
:1009A0005F4909680843686000202860FFF703FD7D
:1009B00018F00700002807D0502080F31188BFF3FB
:1009C0004F8FBFF36F8FFEE74046BDE8F08170B5F3
:1009D00004002600002C36D05248006840420644ED
:1009E000350068684E490968084207D1502080F3F5
:1009F0001188BFF34F8FBFF36F8FFEE72868002881
:100A000007D0502080F31188BFF34F8FBFF36F8F53
:100A1000FEE7686842490968084214D0286800283F
:100A200011D168683E49096888436860FFF7BBFCDC
:100A30003D480068696808183B490860280000F0D4
:100A40003AF8FFF7B8FC70BD30B44FF44063394C4E
:100A5000220012F0070F05D0D21DD208D2009B1A37
:100A6000344CE3181100314C216000242F4D6C6090
:100A70005C1822002B4C2468121BD208D200274C91
:100A800022600024254D2D686C600024234D2D68C4
:100A90002C600800141A4460204C246804604468E8
:100AA000234D2C604468204D2C605FF000441C4DA9
:100AB0002C6030BC704710B41C4B1A001368834282
:100AC00001D21268FAE7110053680B44834204D143
:100AD00053684468E31853601000010043680B44F6
:100AE0001468A34211D113680C4C2468A34208D0A7
:100AF000436814686468E318436013681B68036004
:100B000005E0064B1B68036001E013680360824246
:100B100000D0106010BC704700000000BC12002024
:100B2000C8120020DC360008C0120020B4120020D9
:100B3000C41200201804002010F1080141605FF089
:100B4000FF31816010F10801C16010F108010161FD
:100B500000210160704700210161704742684A60CE
:100B600093688B60936859609160086103685B1CAF
:100B70000360704710B40B6813F1010F02D10469D0
:100B8000220008E010F10804220054682468A342FF
:100B900001D35268F9E754684C604C68A1608A60E0
:100BA000516008610468641C046010BC7047010057
:100BB00008698A684B689A604A688B685A6042681C
:100BC0008A4201D18A68426000220A610268521E8C
:100BD0000260006870470102001F5FF080730360CD
:100BE000001F4B085B000360001F0FF20D03036042
:100BF00014380260203870475748006810F1010F20
:100C000007D0502080F31188BFF34F8FBFF36F8F51
:100C1000FEE7502080F31188BFF34F8FBFF36F8F33
:100C2000FEE700B583B04D4801780191FF210170C6
:100C300001788DF800109DF8001011F05001484A1D
:100C400011700721474A11609DF8001009060AD566
:100C500044490968491E434A11609DF80010490043
:100C60008DF80010F0E73F49096809023D4A11601C
:100C70003C49096811F4E0613A4A11600199017038
:100C80003948006850F470003749086036480068F9
:100C900050F070403449086000F051F800202E49AF
:100CA000086000F09EF800200EBD502080F31188EF
:100CB000BFF34F8FBFF36F8F27480068401C264952
:100CC00008602548006801280BD128480068000604
:100CD00007D0502080F31188BFF34F8FBFF36F8F81
:100CE000FEE770471C480068002807D1502080F3B9
:100CF0001188BFF34F8FBFF36F8FFEE71648006870
:100D0000401E1549086014480068002802D10020E0
:100D100080F31188704780B5502080F31188BFF3AD
:100D20004F8FBFF36F8FFFF7C5FB002803D05FF035
:100D300080500E490860002080F3118801BD0C48E6
:100D400000684FF47A71B0FBF1F0401E0949086069
:100D500007200949086070470C00002000E400E00B
:100D600019130020D412002020ED00E004ED00E073
:100D70001000002014E000E010E000E0EFF3098034
:100D8000BFF36F8F1D4B1A6820E9F00F106008B594
:100D90004FF0500080F31188BFF34F8FBFF36F8F78
:100DA000FFF71DFC4FF0000080F31188BDE80840FC
:100DB00019680868B0E8F00F80F30988BFF36F8FF7
:100DC00070470E4B19680868B0E8F00F80F3098887
:100DD000BFF36F8F4FF0000080F311884EF00D0EBF
:100DE000704707480068006880F3088862B661B6FB
:100DF000BFF34F8FBFF36F8F00DF0000DC120020C6
:100E000008ED00E070B582B0040000252078C0072E
:100E100040F18480DFF8C806006810F00C00042858
:100E20000BD0DFF8BC06006810F00C0008280ED1CB
:100E3000DFF8AC060068C00309D5DFF8A00600683B
:100E400080036BD56068002868D1012008E26068E3
:100E5000B0F5803F08D1DFF88406006850F4803098
:100E6000DFF87816086038E06068002810D1DFF8F5
:100E70006C06006830F48030DFF860160860DFF838
:100E80005C06006830F48020DFF85016086024E02B
:100E90006068B0F5A02F10D1DFF84006006850F46C
:100EA0008020DFF838160860DFF83006006850F45C
:100EB0008030DFF8281608600FE0DFF820060068B1
:100EC00030F48030DFF814160860DFF81006006890
:100ED00030F48020DFF804160860606800280ED027
:100EE00000F037FB0500DFF8F4050068800315D437
:100EF00000F02FFB401B6528F5D30320B0E100F084
:100F000028FB0500DFF8D4050068800306D500F053
:100F100020FB401B6528F5D30320A1E12078800742
:100F20005ED5DFF8BC05006810F00C0F0BD0DFF8C1
:100F3000B005006810F00C0008281BD1DFF8A005F0
:100F40000068C00316D4DFF894050068800704D554
:100F50002069012801D0012082E1DFF880050068C6
:100F60007FF0F8010840616950EAC100DFF86C15B4
:100F7000086035E0206900281FD00120DFF87015D7
:100F8000086000F0E6FA0500DFF850050068800709
:100F900006D400F0DEFA401B0328F5D303205FE1FE
:100FA000DFF8380500687FF0F8010840616950EA11
:100FB000C100DFF82815086012E00020DFF83015C6
:100FC000086000F0C6FA0500DFF810050068800729
:100FD00006D500F0BEFA401B0328F5D303203FE1FD
:100FE000207800072CD5A069002816D00120DFF852
:100FF0000415086000F0ADFA0500DFF8F0040068A1
:10100000800706D400F0A5FA401B0328F5D303207F
:1010100026E1012000F04FFA12E00020DFF8D4149E
:10102000086000F096FA0500DFF8C0040068800749
:1010300006D500F08EFA401B0328F5D303200FE1FC
:101040002078400740F1A9800026DFF8AC04006852
:10105000C00010D4DFF8A004006850F08050DFF822
:1010600098140860DFF89004006810F08050009039
:10107000009801200600DFF884040068C00516D43B
:10108000DFF87804006850F48070DFF870140860AE
:1010900000F05FFA0500DFF864040068C00506D4BC
:1010A00000F057FA401B6528F5D30320D8E0E0682C
:1010B000012808D1DFF84804006850F00100DFF88B
:1010C0004014086039E0E068002811D1DFF83004EE
:1010D000006840084000DFF828140860DFF82004AA
:1010E00000687FF004010840DFF81414086024E071
:1010F000E068052810D1DFF80804006850F004000B
:10110000DFF8FC130860DFF8F803006850F0010016
:10111000DFF8EC13086010E0DFF8E4030068400833
:101120004000DFF8DC130860DFF8D40300687FF0CC
:1011300004010840DFF8C8130860E068002810D0F8
:1011400000F007FA0500DFF8B8030068800719D43B
:1011500000F0FFF9401B41F289318842F3D30320AC
:101160007EE000F0F6F90500DFF8940300688007E0
:1011700008D500F0EEF9401B41F289318842F3D3E3
:1011800003206DE0F6B2012E07D1DFF86C03006892
:1011900030F08050DFF860130860E06900285ED00E
:1011A000DFF83C03006810F00C00082855D0E06917
:1011B00002283FD10020DFF84C13086000F0C9F985
:1011C0000500DFF818030068800106D500F0C1F9BA
:1011D000401B0328F5D3032042E0206AB0F5803F8E
:1011E00009D1DFF8FC02006830F40030A168084340
:1011F000DFF8EC120860DFF8E802006830F47410E1
:10120000216A0843616A0843DFF8D41208600120AC
:10121000DFF8F012086000F09CF90500DFF8BC026E
:10122000006880011BD400F094F9401B0328F5D31B
:10123000032015E00020DFF8CC12086000F089F9E7
:101240000500DFF898020068800108D500F081F9F8
:10125000401B0328F5D3032002E0012000E000201A
:1012600076BD70B504000D000026DFF89C02006812
:1012700010F00700A84211D2DFF88C020068C00805
:10128000C0002843DFF880120860DFF87C020068A5
:1012900010F00700A84201D00120A4E020788007C8
:1012A0000AD5DFF83C0200687FF0F0010840A16831
:1012B0000843DFF82C1208602078C00758D5606812
:1012C000012806D1DFF814020068800312D401203F
:1012D00089E06068022806D1DFF80002006880011A
:1012E00008D401207FE0DFF8F4010068800701D412
:1012F000012078E0DFF8E80100688008800061687C
:1013000008437749086000F024F906006068012866
:101310000ED17348006810F00C00042828D000F0AB
:1013200018F9801B41F289318842F2D303205AE038
:10133000606802280ED16A48006810F00C00082886
:1013400016D000F006F9801B41F289318842F2D3B1
:10135000032048E06248006810F00C0F08D000F04D
:10136000F8F8801B41F289318842F3D303203AE038
:101370006548006810F0070085420ED26248006898
:10138000C008C0002843604908605F48006810F04A
:101390000700A84201D0012025E02078400707D5AA
:1013A0004F48006830F4E060E16808434C49086049
:1013B0002078000708D54A48006830F46050216959
:1013C00050EAC1004649086000F00EF84F49444A0F
:1013D0001268C2F30312895CC840434908600020C8
:1013E00000F0C0F8002070BD70B586B001A8484973
:1013F000102200F0FFF847480088ADF800000021F7
:101400000022002300240020354D2D68290011F012
:101410000C05042D02D0082D03D01DE0314D28000D
:101420001CE001ADC1F38346AD5D2C00CD030DD5AD
:101430006D462B4E3668C6F34046AD5D2A00294DF9
:1014400005FB04F5B5FBF2F52B0003E0324D05FB7F
:1014500004F52B00180001E0224D280006B070BDF5
:1014600021480068704780B5FFF7FAFF2B491C4AF6
:101470001268C2F30222895CC84002BD0F220260DA
:10148000174A126812F003024260154A126812F0FD
:10149000F0028260124A126812F4E062C260104ADE
:1014A0001268D20812F4E0620261174A126812F060
:1014B00007020A60704781B00B490968C9084FF4F8
:1014C0007A72B1FBF2F101FB00F1009100BF0099CB
:1014D0004A1E00920029F9D101B070470010024065
:1014E0000410024000127A00100000202410024074
:1014F00000004242800442421C1002400070004042
:101500002010024060004242002002408436000861
:1015100074360008D60B000800093D00CC360008E0
:1015200080B50D48006850F010000B49086003209A
:1015300000F0F4F8002000F015F800F037F9002072
:1015400002BD074800680549097808180449086081
:1015500070470348006870470020024014000020D4
:10156000D812002070B588B00400002500260022A3
:1015700021001C2000F0D8F81C2000F0E8F81A48E0
:10158000006850F00100184908601748006810F022
:1015900001000090009801A902A8FFF76FFFFFF774
:1015A00062FF400005001148B5FBF0F0401E060048
:1015B0005FF080400E49086040F2E7300C49C86097
:1015C0000B48466000200A490861002008498860ED
:1015D000074800F0EDF9002803D1054800F005FAAE
:1015E00000E0012008B070BD1C10024040420F0016
:1015F000D8110020103A07D330B4B1E83810103AAF
:10160000A0E83810F9D230BC530724BFB1E8081065
:10161000A0E8081044BF51F8043B40F8043BD2074F
:1016200024BF31F8022B20F8022B44BF0B78037043
:101630007047083A07D3B1E80810083A40F8043B6D
:1016400040F804CBF7D25307E4E7000010F007029C
:101650004E4B1B6819004FF6FF0319404C4B53EAE1
:1016600002231943494B1960704748480068C0F38A
:1016700002207047012110F01F029140454A40B2FC
:10168000430942F82310704710B440B2002808D52F
:101690000A01414B40B210F00F04234403F8042C1C
:1016A00003E00A013D4B40B21A5410BC704770B4BD
:1016B000030013F00704D4F10706052E01D304201C
:1016C00001E0D4F10700261D072E01D2002500E01D
:1016D000E51E012616FA00F0401E0840A840012130
:1016E000A940491E1140084370BC704710B5040062
:1016F000601EB0F1807F01D301200EE0601E2849FA
:1017000008600F215FF0FF30FFF7BEFF0020254982
:101710000860072024490860002010BD10B50400AF
:101720002000FFF793FF10BDF8B504000D00160070
:101730000027FFF79AFF0700320029003800FFF763
:10174000B6FF0100200040B2FFF79EFFF1BD10B5CB
:101750000400200040B2FFF78DFF10BD10B504005B
:101760002000FFF7C3FF10BD042806D10E49096809
:1017700051F004010C4A116006E00B4909687FF042
:1017800004021140084A1160704700000CED00E0AF
:101790000000FA0500E100E018ED00E000E400E0E0
:1017A00014E000E018E000E010E000E080B57748C9
:1017B000006850F00100754908607448006810F036
:1017C0000100009000987248006850F08050704905
:1017D00008606F48006810F0805000900098032067
:1017E000FFF79CFF002200217FF00B00FFF79CFF1A
:1017F000002200217FF00A00FFF796FF002200215F
:101800007FF00900FFF790FF002200217FF0040025
:10181000FFF78AFF002200217FF00300FFF784FF1B
:1018200000220F217FF00100FFF77EFF00220F2131
:101830005FF0FF30FFF778FF56490968080030F085
:10184000E06050F000705349086001BD10B586B0EB
:10185000040020685049884221D14D48006850F06A
:1018600000704B4908604A48006810F00070009012
:1018700000984FF400600190002002900020039037
:1018800001A9464800F02EFB4FF480500190022041
:1018900002900320049001A9404800F023FB06B009
:1018A00010BD10B586B0040020683D49884220D1A3
:1018B0003648006850F48050344908603348006866
:1018C00010F4805000900098A02001900220029017
:1018D0000320049001A9314800F004FB402001904E
:1018E000002002900020039001A92C4800F0FAFA91
:1018F00025E020682B49884221D12548006850F412
:101900008040234908602248006810F4804000901D
:1019100000984FF420400190022002900320049090
:1019200001A9214800F0DEFA4FF480400190002028
:1019300002900020039001A91B4800F0D3FA06B0E2
:1019400010BD81B00168194A91420BD11049096854
:1019500051F004010E4A11600D49096811F00401AB
:101960000091009901B070471FB5040020680F492D
:1019700088420AD14FF4707000900220019002203A
:1019800003906946084800F0ADFA1FBD18100240E8
:101990001C100240040001400064004000080140A7
:1019A0000030014000380040000C014000080040B9
:1019B00010B50400002C01D1012014E094F83D0082
:1019C000002805D1002084F83C00200000F00CF82D
:1019D000022084F83D00211D206800F072F90120EA
:1019E00084F83D00002010BD704701000868C06801
:1019F00050F001000A68D0600868006850F00100EB
:101A00000A6810600020704710B50400002C01D156
:101A1000012014E094F83D00002805D1002084F84E
:101A20003C002000FFF78DFF022084F83D00211DBF
:101A3000206800F046F9012084F83D00002010BD28
:101A400010B504002068006980071AD52068C068B6
:101A5000800716D57FF002002168086101202077F9
:101A60002068806910F0030F03D0200000F026F9F1
:101A700005E0200000F021F9200000F020F900200E
:101A800020772068006940071AD52068C0684007A1
:101A900016D57FF0040021680861022020772068B5
:101AA000806910F4407F03D0200000F007F905E0C2
:101AB000200000F002F9200000F001F9002020775A
:101AC0002068006900071AD52068C068000716D58D
:101AD0007FF0080021680861042020772068C06931
:101AE00010F0030F03D0200000F0E8F805E020001C
:101AF00000F0E3F8200000F0E2F8002020772068F2
:101B00000069C0061AD52068C068C00616D57FF0E7
:101B1000100021680861082020772068C06910F44F
:101B2000407F03D0200000F0C9F805E0200000F05D
:101B3000C4F8200000F0C3F8002020772068006976
:101B4000C0070AD52068C068C00706D57FF001002D
:101B500021680861200000F03FFD20680069000650
:101B60000AD52068C068000606D57FF0800021688D
:101B70000861200000F06AFD2068006940060AD56F
:101B80002068C068400606D57FF0400021680861E3
:101B9000200000F095F82068006980060AD52068CA
:101BA000C068800606D57FF020002168086120000B
:101BB00000F04BFD10BD70B504000D00160094F848
:101BC0003C00012801D1022076E0012084F83C008D
:101BD000022084F83D003000002806D004281CD0E4
:101BE000082832D00C2848D05FE02900206800F097
:101BF0009EF82068806950F008002168886120689C
:101C000080697FF00401084021688861206880694C
:101C1000296908432168886147E02900206800F0AD
:101C2000BDF82068806950F40060216888612068F0
:101C3000806930F480602168886120688069296942
:101C400050EA0120216888612FE02900206800F017
:101C5000E1F82068C06950F008002168C861206878
:101C6000C0697FF0040108402168C8612068C0692C
:101C7000296908432168C86117E02900206800F03D
:101C800001F92068C06950F400602168C8612068CB
:101C9000C06930F480602168C8612068C069296922
:101CA00050EA01202168C861FFE7012084F83D0067
:101CB000002084F83C00002070BD704770477047DA
:101CC0007047002203681A00834B984208D0B0F195
:101CD000804F05D0814B984202D0814B984204D16D
:101CE0007FF070031A404B681A437B4B984208D030
:101CF000B0F1804F05D0794B984202D0784B984292
:101D000003D132F44072CB681A437FF080031A404B
:101D10004B691A4302608B68C3620B6883626E4B27
:101D2000984201D10B69036301234361704730B4CA
:101D3000002300240022056A6D086D000562056A13
:101D40002C0045682A0085692B007FF070052B4028
:101D50009B089B000D682B437FF002052C408D688B
:101D60002C435D4DA84207D17FF008052C40CD687B
:101D70002C437FF004052C40574DA84207D132F484
:101D8000807232F400724D692A438D692A434260A1
:101D900083614D684563046230BC704770B40023B2
:101DA00000240022056A7FF0100635400562056AAE
:101DB0002C0045682A0085692B0033F4E04333F496
:101DC00040730D6853EA05237FF020052C408D6891
:101DD00054EA0514404DA84208D17FF080052C40FC
:101DE000CD6854EA05147FF040052C403A4DA842D6
:101DF00009D132F4806232F400624D6952EA850200
:101E00008D6952EA8502426083614D688563046290
:101E100070BC704730B4002300240022056A35F4FA
:101E200080750562056A2C0045682A00C5692B008B
:101E30007FF070052B409B089B000D682B4334F40A
:101E400000748D6854EA0524234DA84206D134F469
:101E50000064CD6854EA052434F480641E4DA84221
:101E600009D132F4805232F400524D6952EA05121F
:101E70008D6952EA05124260C3614D68C563046210
:101E800030BC704730B4002200230024056A35F4CA
:101E900080550562056A2B0045682C00C5692A003B
:101EA00032F4E04232F440720D6852EA052233F413
:101EB00000538D6853EA0533074DA84204D134F42A
:101EC00080444D6954EA85144460C2614D680564DC
:101ED000036230BC70470000002C01400004004049
:101EE000000800402DE9F8410023002400250026C9
:101EF0005FF0000E5FF0000C6246102A80F04D810A
:101F00005FF0010C1CFA02FC6346D1F800C013EA32
:101F10000C0C64469C4240F03E81D1F804C0BCF1F8
:101F2000000F3DD0BCF1010F24D0BCF1020F2BD02B
:101F3000BCF1030F4CD0BCF1110F1FD0BCF1120F3C
:101F400028D0DFF87082C4452AD0DFF86C82C445FF
:101F500026D0DFF86882C44522D0DFF86482C44509
:101F60001ED0DFF86082C4451AD0DFF85C82C44519
:101F700016D031E0D1F80CC066462DE0D1F80CC087
:101F80001CF1040C664627E0D1F80CC01CF1080CCB
:101F9000664621E0D1F80CC01CF10C0C66461BE033
:101FA000D1F808C0BCF1000F03D15FF0040C664605
:101FB0000DE0D1F808C0BCF1010F04D15FF0080CAE
:101FC0006646036103E05FF0080C6646436103E088
:101FD0005FF0000C6646FFE7FF2C01D8070000E029
:101FE000071DFF2C02D85FEA820E03E0B2F1080C55
:101FF0005FEA8C0ED7F800C05FF00F0818FA0EF8F1
:102000003CEA080C16FA0EF858EA0C0CC7F800C0A7
:10201000D1F804C05FEACC0C40F1BD80DFF8ACC160
:10202000DCF800C05CF0010CDFF8A081C8F800C04B
:10203000DFF898C1DCF800C01CF00108CDF8008082
:10204000DDF800C0DFF888C15FEA92085CF828C0BC
:1020500065465FF00F0C12F003085FFA88F85FEA3C
:1020600088081CFA08FC35EA0C05DFF868C16045F1
:1020700002D15FF0000C16E0DFF85CC1604502D1D0
:102080005FF0010C0FE0DFF854C1604502D15FF052
:10209000020C08E0DFF848C1604502D15FF0030C94
:1020A00001E05FF0040C12F003085FFA88F85FEAC1
:1020B00088081CFA08FC5CEA0505DFF814C15FEA31
:1020C00092084CF82850D1F804C05FEACC3C0AD5FD
:1020D000DFF810C1DCF800C054EA0C0CDFF8048112
:1020E000C8F800C009E0DFF8FCC0DCF800C03CEA3A
:1020F000040CDFF8F080C8F800C0D1F804C05FEA33
:102100008C3C0AD5DFF8E0C0DCF800C054EA0C0CC7
:10211000DFF8D480C8F800C009E0DFF8CCC0DCF8F4
:1021200000C03CEA040CDFF8C080C8F800C0D1F859
:1021300004C05FEACC2C0AD5DFF8B0C0DCF800C0E0
:1021400054EA0C0CDFF8A480C8F800C009E0DFF8FE
:102150009CC0DCF800C03CEA040CDFF89080C8F8B2
:1021600000C0D1F804C05FEA8C2C0AD5DFF880C02B
:10217000DCF800C054EA0C0CDFF87480C8F800C02A
:1021800009E0DFF86CC0DCF800C03CEA040CDFF8C2
:102190006080C8F800C0521CAFE6BDE8F181D2B241
:1021A000002A02D089B2016102E089B20B04036106
:1021B00070470000000011100000121000002110F4
:1021C00000002210000031100000321018100240F0
:1021D0000800014000080140000C014000100140CF
:1021E00000140140000401400404014008040140BF
:1021F0000C04014000B585B0FFF792F900F01EF81D
:1022000000F060F900F0F4F800F08EF800F0BEF88D
:1022100000F059F800F01CFA00F066FB6846DFF8A1
:1022200078131422FFF7E6F90021684600F0E8FC75
:10223000DFF86813086000F0DEFCFEE700B58FB041
:10224000012005905FF48030069000200790012067
:10225000099002200C905FF480300D905FF4E01044
:102260000E9005A8FEF7CEFD002804D0C921DFF8A6
:10227000300300F0BAF90F200090022001900020F6
:1022800002904FF480600390002004900221684681
:10229000FEF7E7FF002803D0D721C14800F0A5F9D9
:1022A000FFF7DEF84FF47A71B0FBF1F0FFF756FA62
:1022B0000420FFF759FA00220F215FF0FF30FFF7EB
:1022C00033FA0FB000BD80B5B648B7490860122098
:1022D000B54948600020B44988600020B249C86010
:1022E0005FF44020B04908615FF48010AE49486156
:1022F0000020AD4988610120AB49C8610120AA498D
:1023000008620120A84948620020A749886200208D
:10231000A549C862A44800F0A1FC002803D0F82118
:102320009F4800F062F901BD80B5A048A04908604F
:102330004FF482709E49486000209D4988600020CB
:102340009B49C86000209A4908610020984948616B
:102350004FF400709649886118209549C8610020A3
:10236000934908620020924948620020904988629F
:102370000A208F49C8628E4800F023FD002804D04F
:102380004FF48871864800F030F901BD80B5894866
:10239000894908604FF48270874948600020864967
:1023A000886000208449C8600020834908610020BB
:1023B000814948614FF400707F49886110207E494F
:1023C000C86100207C49086200207B4948620020E7
:1023D000794988620A207849C862774800F0F1FCA0
:1023E000002804D04FF494716D4800F0FEF801BD50
:1023F00000B589B071487249086000207049486092
:1024000000206F49886000206D49C86000206C4939
:10241000086100206A4988616948FFF7F5FA0028D9
:1024200004D04FF49E715E4800F0DFF80020009069
:10243000002001906946624800F0D8F8002804D0D6
:1024400040F24311564800F0D0F86020029000207E
:1024500003900020049000200690002202A9584812
:10246000FFF7A9FB002804D04FF4A6714C4800F0F8
:10247000BCF8042202A95248FFF79DFB002804D0B3
:1024800040F25111464800F0B0F8082202A94C4829
:10249000FFF791FB002804D04FF4AB71404800F0E7
:1024A000A4F80C2202A94648FFF785FB002804D0B7
:1024B00040F25B113A4800F098F84148FFF754FAAF
:1024C00009B000BD00B585B03E48006850F020005E
:1024D0003C4908603B48006810F0200000900098DC
:1024E0003848006850F004003649086035480068F4
:1024F00010F00400009000983248006850F0080086
:10250000304908602F48006810F0080000900098DB
:1025100000224FF48A712C48FFF741FE00224FF44D
:1025200080512A48FFF73BFE4FF48A70019001204A
:102530000290002003900220049001A92248FFF796
:10254000D1FC08200190224802900020039001A9AC
:102550001D48FFF7C7FC4FF4805001900120029006
:10256000002003900220049001A91848FFF7BAFC4C
:1025700005B000BD10B582B0040000F0D2F90A2009
:1025800000F055FB322000900523124A0021612003
:1025900000F064F9F1E7000060360008CC1200207A
:1025A000383500080064004054110020003001401C
:1025B000A410002000380040FC100020000800405B
:1025C000981100201810024000080140000C014042
:1025D000000021101812002010B504002068B0F18E
:1025E000804F01D1FEF7ADFF10BDFEE7020092F86B
:1025F0003C00012801D1022026E0012082F83C00A5
:10260000022082F83D00106840687FF07003184097
:1026100013685860106840680B6818431368586066
:10262000106880687FF08003184013689860106815
:1026300080684B68184313689860012082F83D0059
:10264000002082F83C00002070477047704700006F
:1026500080B5142000F035F900F00BF800F02FF8E9
:1026600001BD00000100481E002901D000BFF9E7AC
:1026700070471CB50A2408208DF8050000208DF84D
:1026800004002000441EC0B2002816D001230DF122
:1026900005020021202000F0B3F81420009001234F
:1026A00001AA0021002000F0D9F89DF804009DF84F
:1026B00005108842E5D1012000E0002016BD00B5DC
:1026C00085B0002204218448FFF769FD00208DF8C1
:1026D00004007B208DF80400012301AA00212020A2
:1026E00000F08EF81420009001237C4A0021002085
:1026F00000F0B4F800208DF80400012301AA0221A3
:10270000202000F07DF8142000900123734A02215C
:10271000002000F0A3F801208DF80400012301AA95
:102720000221202000F06CF81420009001236B4A55
:102730000221002000F092F800208DF8040001230F
:1027400001AA0121202000F05BF814200090012351
:10275000624A0121002000F081F805208DF8040074
:10276000012301AA1121202000F04AF81420009032
:1027700001235A4A1121002000F070F802A858499C
:10278000D1E90023C0E90023052302AA0A21202061
:1027900000F036F8142000900523504A0A2100204A
:1027A00000F05CF80A208DF80400012301AA05213D
:1027B000202000F025F8142000900123474A05212D
:1027C000002000F04BF80F208DF80400012301AA2F
:1027D0000621202000F014F81420009001233F4A25
:1027E0000621002000F03AF8012204213A48FFF7C0
:1027F000D6FC4FF49670FFF735FF012005B000BD01
:10280000F8B504000D0016001F0028198DF800000F
:10281000012210213048FFF7C2FC002210212E486F
:10282000FFF7BDFC0A23012269462E4800F010FB89
:10283000002801D0002010E00A233A0092B23100B3
:10284000284800F005FB002801D0002005E0012207
:1028500010212148FFF7A3FC0120F2BD2DE9F04132
:1028600082B004000D0016001F00DDF82080012258
:1028700010211948FFF793FC002210211648FFF79A
:102880008EFC28198DF800000A230122694615489C
:1028900000F0DEFA002801D0002010E043463A00A4
:1028A00092B231000F4800F0B0FB002801D00020A8
:1028B00005E0012210210848FFF771FC0120BDE866
:1028C000F68138B50400FEF744FE0500FEF741FE30
:1028D000401BA042FAD331BD000801409C120020E9
:1028E000BC360008A410002080B500224FF480718F
:1028F000AE48FFF754FC01224FF48051AC48FFF77B
:102900004EFC322000F062F900F02DF800F04DF896
:1029100001BD00000100481E002901D000BFF9E7F9
:10292000704780B500224FF48071A048FFF737FC54
:10293000A0480068401C9F49086005239E4A00216A
:10294000A02000F0CBF801224FF480719748FFF7E8
:1029500026FC4FF4FA70FFF7DDFF97480079401C22
:102960009549087101BD1CB50A2408208DF80400A2
:102970002000441EC0B2002815D0012301AA002166
:10298000202000F0ABF81420009001238B4A002196
:10299000002000F0D4F8894800789DF8041088429F
:1029A000E6D1012000E0002016BD00B585B0002072
:1029B0008DF8040000208DF80400012301AA0221F3
:1029C000202000F08BF81420009001237C4A022183
:1029D000002000F0B4F801208DF80400012301AAC2
:1029E0000221202000F07AF8142000900123744A7C
:1029F0000221002000F0A3F800208DF8040001233C
:102A000001AA0121202000F069F814200090012380
:102A10006B4A0121002000F092F80A208DF8040092
:102A2000012301AA0521202000F058F8142000906D
:102A30000123634A0521002000F081F80F208DF862
:102A40000400012301AA0621202000F047F81420E9
:102A5000009001235A4A0621002000F070F87A20E5
:102A60008DF80400012301AA0021202000F036F88F
:102A7000142000900123524A0021002000F05FF84A
:102A800002A85049D1E90023C0E90023052302AA86
:102A90001021202000F022F8142000900523484A3D
:102AA0001021002000F04BF8052302AA0A21202063
:102AB00000F014F8142000900523414A0A21002058
:102AC00000F03DF801224FF480713848FFF767FBB2
:102AD000C820FFF71FFF012005B000BDF8B50400B6
:102AE0000D0016001F0028198DF8000001224FF478
:102AF00080512F48FFF753FB00224FF480512C48A0
:102B0000FFF74DFB0A23012269462F4800F0A0F988
:102B1000002801D0002011E00A233A0092B23100CF
:102B2000294800F095F9002801D0002006E0012294
:102B30004FF480511E48FFF732FB0120F2BD2DE912
:102B4000F04182B004000D0016001F00DDF8208067
:102B500001224FF480511648FFF721FB00224FF469
:102B600080511348FFF71BFB28198DF800000A233A
:102B700001226946144800F06BF9002801D00020BA
:102B800011E043463A0092B231000F4800F03DFA9E
:102B9000002801D0002006E001224FF480510448B3
:102BA000FFF7FDFA0120BDE8F681000000080140B2
:102BB000000C0140D012002000000020181300205B
:102BC000A8120020C4360008FC10002038B504000C
:102BD000FEF7BFFC0500FEF7BCFC401BA042FAD389
:102BE00031BD00000100002009B2842902D009B2E1
:102BF000CA1C1018704780B5FDF7A1FB002002BD6C
:102C00003EB504000D00B4F90800FFF7EBFF02A980
:102C1000019100902B00226992B221686068FDF753
:102C200065FA012801D0002000E002983EBD38B5C9
:102C300004000120B4FBF0F5002D01D0280000E0D5
:102C40000120FDF755FB002032BD80B5FDF7A6FD44
:102C5000012801D0FEF75FF801BD0000F8B50400BF
:102C6000002500260027002C01D10120A8E094F8BF
:102C70003C00002805D1002084F83D002000FEF72C
:102C8000E5FD022084F83C00206800687FF0020126
:102C90000840216808602068006850F00100216841
:102CA0000860FEF756FC060020684068C0070CD498
:102CB000FEF74FFC801B0B28F6D3032084F83C0062
:102CC000002084F83D0003207AE020684068C007B7
:102CD00069D5A069012802D157F0800702E07FF092
:102CE00080000740E069012802D157F0400702E068
:102CF0007FF040000740206A012802D157F02007EA
:102D000002E07FF020000740606A012802D157F0FE
:102D1000100702E07FF010000740A06A012802D1EE
:102D200057F0080702E07FF008000740E06A01283A
:102D300002D157F0040702E07FF00400074020684A
:102D400000687FF0FC010840384321680860A068F3
:102D5000E168084321690843616908436168491EC5
:102D600008432168C8612068006840084000216865
:102D70000860FEF7EEFB060020684068C0070CD52F
:102D8000FEF7E7FB801B0B28F6D3032084F83C00FA
:102D9000002084F83D00032012E020684068C0074E
:102DA00001D401200500012D06D10020206401205E
:102DB00084F83C00002003E0042084F83C0001205B
:102DC000F2BD10B50400002C01D101203EE000202E
:102DD000A06294F85100002802D12000FEF761FDA6
:102DE000022084F85100206800687FF0400108400C
:102DF000216808606068A1680843E16808432169A8
:102E0000084361690843A16911F400710843E1694D
:102E10000843216A0843A16A084321680860A06941
:102E2000000C10F00400616A084321684860E06A01
:102E3000216808612068C06930F400602168C861B9
:102E400000206065012084F85100002010BD0000C2
:102E50002DE9F8430400894615001E0000275FF0A5
:102E6000000894F85000012801D10220CBE0012095
:102E700084F85000FEF76DFB070094F8510001281C
:102E800002D002208046B6E0B9F1000F02D0ADB208
:102E9000002D02D101208046ADE0032084F85100CE
:102EA00000206065C4F83090A586E5860020A06308
:102EB0000020A0870020E0870020606400202064BC
:102EC000A068B0F5004F05D12068006850F480403C
:102ED0002168086020680068400605D42068006802
:102EE00050F0400021680860E068B0F5006F2CD118
:102EF0006068002802D0E08E012808D1B9F80000EF
:102F00002168C86019F10209E08E401EE086E08E5B
:102F1000002847D020688068800709D5B9F80000EC
:102F20002168C86019F10209E08E401EE086EEE7D4
:102F3000002E07D016F1010FE9D0FEF70AFBC01BE7
:102F4000B042E4D30320804655E06068002802D0F8
:102F5000E08E012808D199F800002168087319F162
:102F60000109E08E401EE086E08E00281AD020681D
:102F70008068800709D599F800002168087319F165
:102F80000109E08E401EE086EEE7002E07D016F124
:102F9000010FE9D0FEF7DDFAC01BB042E4D30320F5
:102FA000804628E00097330001220221200000F033
:102FB00005FA002802D0032080461CE03A003100C8
:102FC000200000F04EFA002804D001208046202086
:102FD000606510E0A068002808D1002000902068FB
:102FE000C06800902068806800900098606D00289C
:102FF00001D001208046012084F85100002084F88F
:1030000050004046C0B2BDE8F2832DE9F843040009
:103010000D0016001F005FF000085FF000096068F7
:10302000B0F5827F0ED1A06800280BD1042084F86F
:103030005100009733009BB22A002900200000F0C5
:10304000A1F89DE094F85000012801D1022097E0FA
:10305000012084F85000FEF77CFA804694F8510075
:10306000012802D00220814682E0002D02D0B6B2B3
:10307000002E02D1012081467AE0042084F851001C
:1030800000206065A563A687E687002020630020F6
:10309000A0860020E0860020206400206064A068F4
:1030A000B0F5004F05D12068006830F480402168F9
:1030B000086020680068400605D42068006850F069
:1030C000400021680860E06800281CD1E08F0028DB
:1030D00036D020688068C00707D52068007B28703C
:1030E0006D1CE08F401EE087F0E7002F08D017F13D
:1030F000010FEBD0FEF72DFAB0EB0800B842E5D394
:103100000320814634E0E08F002819D020688068D1
:10311000C00707D52068C0682880AD1CE08F401E1E
:10312000E087F0E7002F08D017F1010FEBD0FEF792
:1031300010FAB0EB0800B842E5D30320814617E04F
:103140006068B0F5827F0ED1A068B0F5004F03D063
:10315000A068B0F5806F06D1206800687FF040015C
:10316000084021680860606D002801D00120814678
:10317000012084F85100002084F850004846C0B275
:10318000BDE8F2832DE9FE4F04008A4693461D00F8
:103190000C9E002001900020029000275FF00108A3
:1031A0005FF0000994F85000012801D1022003E1EA
:1031B000012084F85000FEF7CCF9070094F8510084
:1031C000019060680290019801280CD00298B0F537
:1031D000827F05D1A068002802D10198042802D07E
:1031E00002208146E0E0BAF1000F05D0BBF1000FEC
:1031F00002D0ADB2002D02D101208146D4E094F876
:103200005100012802D1052084F85100002060659A
:10321000C4F838B0E587A587C4F830A0E586A58650
:10322000002020640020606420680068400605D407
:103230002068006850F0400021680860E068B0F540
:10324000006F46D16068002802D0E08E012808D1C6
:10325000BAF800002168C8601AF1020AE08E401E28
:10326000E086E08E002802D1E08F002878D0B8F107
:10327000000F11D0E08E00280ED0206880688007F3
:103280000AD5BAF800002168C8601AF1020AE08E77
:10329000401EE08600208046E08F00280ED0206887
:1032A0008068C0070AD52068C068ABF800001BF131
:1032B000020BE08F401EE0870120804616F1010FCF
:1032C000CFD0FEF746F9C01BB042CAD303208146D7
:1032D0006AE06068002802D0E08E012808D19AF8E0
:1032E0000000216808731AF1010AE08E401EE08692
:1032F000E08E002802D1E08F002831D0B8F1000F15
:1033000011D0E08E00280ED02068806880070AD592
:103310009AF80000216808731AF1010AE08E401E35
:10332000E08600208046E08F00280ED0206880686C
:10333000C0070AD52068C0688BF800001BF1010B9C
:10334000E08F401EE0870120804616F1010FCFD0AC
:10335000FEF7FFF8C01BB042CAD30320814623E02A
:103360000097330001220221200000F027F80028F6
:1033700002D00320814617E03A003100200000F01F
:1033800070F8002804D001208146202060650BE001
:10339000A068002808D1002000902068C068009034
:1033A0002068806800900098012084F85100002077
:1033B00084F850004846C0B2BDE8FE8F2DE9F041C8
:1033C00004000D0016001F00DDF8188020688068DA
:1033D0002840A84201D1012000E00020B0423DD0A9
:1033E00017F1010FF2D0002F05D0FEF7B2F8B0EBC5
:1033F0000800B842EAD3206840687FF0E001084046
:10340000216848606068B0F5827F0ED1A068B0F591
:10341000004F03D0A068B0F5806F06D12068006827
:103420007FF04001084021680860A06AB0F5005FA5
:103430000CD1206800684DF6FF71084021680860D3
:103440002068006850F4005021680860012084F86A
:103450005100002084F85000032000E00020BDE867
:10346000F08170B582B004000D00160000962B00AC
:10347000002280212000FFF7A1FF002805D0606D09
:1034800050F020006065032000E0002076BD0000C1
:103490001348006850F001001149086011480068A5
:1034A000114908400F4908600D4800680F4908405D
:1034B0000B4908600A48006830F480200849086019
:1034C0000848006830F4FE00064908605FF41F00F9
:1034D000074908605FF00060064908607047000017
:1034E00000100240041002400000FFF8FFFFF6FE4B
:1034F0000810024008ED00E019E050F8041BCB076B
:1035000044BFA9F101035918121F0023042A41F8EE
:10351000043BF9D25FEA827C0B4604D54FF0000CE5
:10352000A1F800C09B1CD10744BF0021197050F8BE
:10353000042B002AE1D17047463A5C4E6577205350
:10354000616C652053797374656D5C436F64655C71
:10355000446F6F725C436F72655C5372635C6D6144
:10356000696E2E630000000010B450F8041B79B19E
:103570000268436802440830DC0744BFA9F1010433
:10358000E31852F8044B43F8044B091FF9D1ECE758
:1035900010BC704710B5074979441831064C7C447B
:1035A000163404E00A68081D114488470146A14208
:1035B000F8D110BD2C0000004C0000007047FEE761
:1035C000FEE7FEE7FEE7704780B5FFF73EFB01BD73
:1035D00080B50248FEF734FA01BD0000D811002082
:1035E00019FFFFFF040F0000180400200000000076
:1035F00079FFFFFF180000005000000000000020CD
:103600000000000000F00BF8002801D0FFF7C2FF17
:103610000020C046C046FEF7EDFD00F002F8012094
:10362000704700F001B800000746384600F002F885
:10363000FBE7000080B5C046C046024A11001820D2
:10364000ABBEFBE72600020068656C6C3000000032
:1036500000000000AAAAAAAA00A24A0401000000D1
:10366000A4360008752500080000000000000000D6
:103670008000000002030405060708090A0B0C0D70
:103680000E0F1010000000000000000001020304F3
:10369000060708090148804701480047913400089F
:1036A000B136000864656661756C745461736B00B3
:1036B000C046C046C046C046FFF7A4FFB3B4B5B687
:1036C000F1000000B3B4B5B6F10000000000000046
:1036D0000102030449444C450000000008000000BA
:1036E000FFF7FEBFFFF7FEBFFFF7FEBFFFF7FEBF0E
:1036F000FFF7FEBFFFF7FEBFFFF7FEBFFFF7FEBFFE
:10370000FFF7FEBFFFF7FEBFFFF7FEBFFFF7FEBFED
:10371000FFF7FEBFFFF7FEBFFFF7FEBFFFF7FEBFDD
:10372000FFF7FEBFFFF7FEBFFFF7FEBFFFF7FEBFCD
:10373000FFF7FEBFFFF7FEBFFFF7FEBFFFF7FEBFBD
:10374000FFF7FEBFFFF7FEBFFFF7FEBFFFF7FEBFAD
:10375000FFF7FEBFFFF7FEBFFFF7FEBFFFF7FEBF9D
:10376000FFF7FEBFFFF7FEBFFFF7FEBFFFF7FEBF8D
:10377000FFF7FEBFFFF7FEBFFFF7FEBFFFF7FEBF7D
:08378000FFF7FEBFFFF7FEBFDB
:04000005080036B108
:00000001FF
